{
  "_format": "hh-sol-artifact-1",
  "contractName": "atadiaSale",
  "sourceName": "contracts/TokenSale.sol",
  "abi": [
    {
      "inputs": [
        {
          "internalType": "address",
          "name": "_tokenContract",
          "type": "address"
        }
      ],
      "stateMutability": "nonpayable",
      "type": "constructor"
    },
    {
      "anonymous": false,
      "inputs": [
        {
          "indexed": false,
          "internalType": "address",
          "name": "_buyer",
          "type": "address"
        },
        {
          "indexed": false,
          "internalType": "uint256",
          "name": "_amountEth",
          "type": "uint256"
        },
        {
          "indexed": false,
          "internalType": "uint256",
          "name": "_amountToken",
          "type": "uint256"
        }
      ],
      "name": "BuyTokens",
      "type": "event"
    },
    {
      "anonymous": false,
      "inputs": [
        {
          "indexed": true,
          "internalType": "address",
          "name": "previousOwner",
          "type": "address"
        },
        {
          "indexed": true,
          "internalType": "address",
          "name": "newOwner",
          "type": "address"
        }
      ],
      "name": "OwnershipTransferred",
      "type": "event"
    },
    {
      "inputs": [
        {
          "internalType": "address",
          "name": "reciever",
          "type": "address"
        }
      ],
      "name": "buyToken",
      "outputs": [],
      "stateMutability": "payable",
      "type": "function"
    },
    {
      "inputs": [],
      "name": "endSale",
      "outputs": [],
      "stateMutability": "nonpayable",
      "type": "function"
    },
    {
      "inputs": [],
      "name": "owner",
      "outputs": [
        {
          "internalType": "address",
          "name": "",
          "type": "address"
        }
      ],
      "stateMutability": "view",
      "type": "function"
    },
    {
      "inputs": [],
      "name": "rate",
      "outputs": [
        {
          "internalType": "uint256",
          "name": "",
          "type": "uint256"
        }
      ],
      "stateMutability": "view",
      "type": "function"
    },
    {
      "inputs": [],
      "name": "renounceOwnership",
      "outputs": [],
      "stateMutability": "nonpayable",
      "type": "function"
    },
    {
      "inputs": [
        {
          "internalType": "address",
          "name": "newOwner",
          "type": "address"
        }
      ],
      "name": "transferOwnership",
      "outputs": [],
      "stateMutability": "nonpayable",
      "type": "function"
    }
  ],
  "bytecode": "0x60806040526103e86002553480156200001757600080fd5b50604051620011073803806200110783398181016040528101906200003d919062000188565b6200005d62000051620000a560201b60201c565b620000ad60201b60201c565b80600160006101000a81548173ffffffffffffffffffffffffffffffffffffffff021916908373ffffffffffffffffffffffffffffffffffffffff1602179055505062000202565b600033905090565b60008060009054906101000a900473ffffffffffffffffffffffffffffffffffffffff169050816000806101000a81548173ffffffffffffffffffffffffffffffffffffffff021916908373ffffffffffffffffffffffffffffffffffffffff1602179055508173ffffffffffffffffffffffffffffffffffffffff168173ffffffffffffffffffffffffffffffffffffffff167f8be0079c531659141344cd1fd0a4f28419497f9722a3daafe3b4186f6b6457e060405160405180910390a35050565b6000815190506200018281620001e8565b92915050565b6000602082840312156200019b57600080fd5b6000620001ab8482850162000171565b91505092915050565b6000620001c182620001c8565b9050919050565b600073ffffffffffffffffffffffffffffffffffffffff82169050919050565b620001f381620001b4565b8114620001ff57600080fd5b50565b610ef580620002126000396000f3fe6080604052600436106100555760003560e01c80632c4e722e1461005a578063380d831b14610085578063715018a61461009c5780637e72fb52146100b35780638da5cb5b146100cf578063f2fde38b146100fa575b600080fd5b34801561006657600080fd5b5061006f610123565b60405161007c9190610b46565b60405180910390f35b34801561009157600080fd5b5061009a610129565b005b3480156100a857600080fd5b506100b161029d565b005b6100cd60048036038101906100c891906107f3565b610325565b005b3480156100db57600080fd5b506100e46104fe565b6040516100f191906109c9565b60405180910390f35b34801561010657600080fd5b50610121600480360381019061011c91906107f3565b610527565b005b60025481565b61013161061f565b73ffffffffffffffffffffffffffffffffffffffff1661014f6104fe565b73ffffffffffffffffffffffffffffffffffffffff16146101a5576040517f08c379a000000000000000000000000000000000000000000000000000000000815260040161019c90610b06565b60405180910390fd5b6000479050600081116101ed576040517f08c379a00000000000000000000000000000000000000000000000000000000081526004016101e490610a66565b60405180910390fd5b60003373ffffffffffffffffffffffffffffffffffffffff1647604051610213906109b4565b60006040518083038185875af1925050503d8060008114610250576040519150601f19603f3d011682016040523d82523d6000602084013e610255565b606091505b5050905080610299576040517f08c379a000000000000000000000000000000000000000000000000000000000815260040161029090610b26565b60405180910390fd5b5050565b6102a561061f565b73ffffffffffffffffffffffffffffffffffffffff166102c36104fe565b73ffffffffffffffffffffffffffffffffffffffff1614610319576040517f08c379a000000000000000000000000000000000000000000000000000000000815260040161031090610b06565b60405180910390fd5b6103236000610627565b565b60003411610368576040517f08c379a000000000000000000000000000000000000000000000000000000000815260040161035f90610aa6565b60405180910390fd5b6000670de0b6b3a7640000905060006103b734836040518060400160405280601681526020017f4469766973696f6e206279207a65726f206572726f72000000000000000000008152506106eb565b905060006103c78260025461074e565b90506000600160009054906101000a900473ffffffffffffffffffffffffffffffffffffffff1673ffffffffffffffffffffffffffffffffffffffff1663e74a84ea86846040518363ffffffff1660e01b81526004016104289291906109e4565b602060405180830381600087803b15801561044257600080fd5b505af1158015610456573d6000803e3d6000fd5b505050506040513d601f19601f8201168201806040525081019061047a919061081c565b9050806104bc576040517f08c379a00000000000000000000000000000000000000000000000000000000081526004016104b390610ac6565b60405180910390fd5b7f0a37b72bb67eee30e09084cf386f8a17817c57f620c3ab95fb25d6a20356ec778534846040516104ef93929190610a0d565b60405180910390a15050505050565b60008060009054906101000a900473ffffffffffffffffffffffffffffffffffffffff16905090565b61052f61061f565b73ffffffffffffffffffffffffffffffffffffffff1661054d6104fe565b73ffffffffffffffffffffffffffffffffffffffff16146105a3576040517f08c379a000000000000000000000000000000000000000000000000000000000815260040161059a90610b06565b60405180910390fd5b600073ffffffffffffffffffffffffffffffffffffffff168173ffffffffffffffffffffffffffffffffffffffff161415610613576040517f08c379a000000000000000000000000000000000000000000000000000000000815260040161060a90610a86565b60405180910390fd5b61061c81610627565b50565b600033905090565b60008060009054906101000a900473ffffffffffffffffffffffffffffffffffffffff169050816000806101000a81548173ffffffffffffffffffffffffffffffffffffffff021916908373ffffffffffffffffffffffffffffffffffffffff1602179055508173ffffffffffffffffffffffffffffffffffffffff168173ffffffffffffffffffffffffffffffffffffffff167f8be0079c531659141344cd1fd0a4f28419497f9722a3daafe3b4186f6b6457e060405160405180910390a35050565b60008083118290610732576040517f08c379a00000000000000000000000000000000000000000000000000000000081526004016107299190610a44565b60405180910390fd5b50600083856107419190610b88565b9050809150509392505050565b60008083141561076157600090506107c3565b6000828461076f9190610bb9565b905082848261077e9190610b88565b146107be576040517f08c379a00000000000000000000000000000000000000000000000000000000081526004016107b590610ae6565b60405180910390fd5b809150505b92915050565b6000813590506107d881610e91565b92915050565b6000815190506107ed81610ea8565b92915050565b60006020828403121561080557600080fd5b6000610813848285016107c9565b91505092915050565b60006020828403121561082e57600080fd5b600061083c848285016107de565b91505092915050565b61084e81610c13565b82525050565b600061085f82610b61565b6108698185610b77565b9350610879818560208601610c5b565b61088281610cec565b840191505092915050565b600061089a601483610b77565b91506108a582610cfd565b602082019050919050565b60006108bd602683610b77565b91506108c882610d26565b604082019050919050565b60006108e0601883610b77565b91506108eb82610d75565b602082019050919050565b6000610903601783610b77565b915061090e82610d9e565b602082019050919050565b6000610926602183610b77565b915061093182610dc7565b604082019050919050565b6000610949602083610b77565b915061095482610e16565b602082019050919050565b600061096c600083610b6c565b915061097782610e3f565b600082019050919050565b600061098f602583610b77565b915061099a82610e42565b604082019050919050565b6109ae81610c51565b82525050565b60006109bf8261095f565b9150819050919050565b60006020820190506109de6000830184610845565b92915050565b60006040820190506109f96000830185610845565b610a0660208301846109a5565b9392505050565b6000606082019050610a226000830186610845565b610a2f60208301856109a5565b610a3c60408301846109a5565b949350505050565b60006020820190508181036000830152610a5e8184610854565b905092915050565b60006020820190508181036000830152610a7f8161088d565b9050919050565b60006020820190508181036000830152610a9f816108b0565b9050919050565b60006020820190508181036000830152610abf816108d3565b9050919050565b60006020820190508181036000830152610adf816108f6565b9050919050565b60006020820190508181036000830152610aff81610919565b9050919050565b60006020820190508181036000830152610b1f8161093c565b9050919050565b60006020820190508181036000830152610b3f81610982565b9050919050565b6000602082019050610b5b60008301846109a5565b92915050565b600081519050919050565b600081905092915050565b600082825260208201905092915050565b6000610b9382610c51565b9150610b9e83610c51565b925082610bae57610bad610cbd565b5b828204905092915050565b6000610bc482610c51565b9150610bcf83610c51565b9250817fffffffffffffffffffffffffffffffffffffffffffffffffffffffffffffffff0483118215151615610c0857610c07610c8e565b5b828202905092915050565b6000610c1e82610c31565b9050919050565b60008115159050919050565b600073ffffffffffffffffffffffffffffffffffffffff82169050919050565b6000819050919050565b60005b83811015610c79578082015181840152602081019050610c5e565b83811115610c88576000848401525b50505050565b7f4e487b7100000000000000000000000000000000000000000000000000000000600052601160045260246000fd5b7f4e487b7100000000000000000000000000000000000000000000000000000000600052601260045260246000fd5b6000601f19601f8301169050919050565b7f4e6f2046554e445320746f207472616e73666572000000000000000000000000600082015250565b7f4f776e61626c653a206e6577206f776e657220697320746865207a65726f206160008201527f6464726573730000000000000000000000000000000000000000000000000000602082015250565b7f596f7572204554482062616c616e6365206973206c6f772e0000000000000000600082015250565b7f4661696c656420746f20636f6d706c6574652073616c65000000000000000000600082015250565b7f536166654d6174683a206d756c7469706c69636174696f6e206f766572666c6f60008201527f7700000000000000000000000000000000000000000000000000000000000000602082015250565b7f4f776e61626c653a2063616c6c6572206973206e6f7420746865206f776e6572600082015250565b50565b7f4661696c656420746f2073656e642053616c652070726f636565647320746f2060008201527f6f776e6572000000000000000000000000000000000000000000000000000000602082015250565b610e9a81610c13565b8114610ea557600080fd5b50565b610eb181610c25565b8114610ebc57600080fd5b5056fea2646970667358221220da77c8135c75d62041a28d20a43b2e9ce07f8834edbe4aca856048b939cf2d4e64736f6c63430008010033",
  "linkReferences": {},
  "deployedLinkReferences": {}
}