{
  "_format": "hh-sol-artifact-1",
  "contractName": "atadiaNFT",
  "sourceName": "contracts/atadiaNFT.sol",
  "abi": [
    {
      "inputs": [],
      "stateMutability": "nonpayable",
      "type": "constructor"
    },
    {
      "anonymous": false,
      "inputs": [
        {
          "indexed": true,
          "internalType": "address",
          "name": "owner",
          "type": "address"
        },
        {
          "indexed": true,
          "internalType": "address",
          "name": "approved",
          "type": "address"
        },
        {
          "indexed": true,
          "internalType": "uint256",
          "name": "tokenId",
          "type": "uint256"
        }
      ],
      "name": "Approval",
      "type": "event"
    },
    {
      "anonymous": false,
      "inputs": [
        {
          "indexed": true,
          "internalType": "address",
          "name": "owner",
          "type": "address"
        },
        {
          "indexed": true,
          "internalType": "address",
          "name": "operator",
          "type": "address"
        },
        {
          "indexed": false,
          "internalType": "bool",
          "name": "approved",
          "type": "bool"
        }
      ],
      "name": "ApprovalForAll",
      "type": "event"
    },
    {
      "anonymous": false,
      "inputs": [
        {
          "indexed": true,
          "internalType": "address",
          "name": "previousOwner",
          "type": "address"
        },
        {
          "indexed": true,
          "internalType": "address",
          "name": "newOwner",
          "type": "address"
        }
      ],
      "name": "OwnershipTransferred",
      "type": "event"
    },
    {
      "anonymous": false,
      "inputs": [
        {
          "indexed": true,
          "internalType": "address",
          "name": "from",
          "type": "address"
        },
        {
          "indexed": true,
          "internalType": "address",
          "name": "to",
          "type": "address"
        },
        {
          "indexed": true,
          "internalType": "uint256",
          "name": "tokenId",
          "type": "uint256"
        }
      ],
      "name": "Transfer",
      "type": "event"
    },
    {
      "inputs": [
        {
          "internalType": "address",
          "name": "to",
          "type": "address"
        },
        {
          "internalType": "uint256",
          "name": "tokenId",
          "type": "uint256"
        }
      ],
      "name": "approve",
      "outputs": [],
      "stateMutability": "nonpayable",
      "type": "function"
    },
    {
      "inputs": [
        {
          "internalType": "address",
          "name": "owner",
          "type": "address"
        }
      ],
      "name": "balanceOf",
      "outputs": [
        {
          "internalType": "uint256",
          "name": "",
          "type": "uint256"
        }
      ],
      "stateMutability": "view",
      "type": "function"
    },
    {
      "inputs": [
        {
          "internalType": "uint256",
          "name": "tokenId",
          "type": "uint256"
        }
      ],
      "name": "getApproved",
      "outputs": [
        {
          "internalType": "address",
          "name": "",
          "type": "address"
        }
      ],
      "stateMutability": "view",
      "type": "function"
    },
    {
      "inputs": [
        {
          "internalType": "uint256",
          "name": "_tokenId",
          "type": "uint256"
        }
      ],
      "name": "getMetadata",
      "outputs": [
        {
          "internalType": "string",
          "name": "",
          "type": "string"
        }
      ],
      "stateMutability": "view",
      "type": "function"
    },
    {
      "inputs": [
        {
          "internalType": "address",
          "name": "owner",
          "type": "address"
        },
        {
          "internalType": "address",
          "name": "operator",
          "type": "address"
        }
      ],
      "name": "isApprovedForAll",
      "outputs": [
        {
          "internalType": "bool",
          "name": "",
          "type": "bool"
        }
      ],
      "stateMutability": "view",
      "type": "function"
    },
    {
      "inputs": [
        {
          "internalType": "address",
          "name": "recipient",
          "type": "address"
        },
        {
          "internalType": "string",
          "name": "input",
          "type": "string"
        }
      ],
      "name": "mintNFT",
      "outputs": [
        {
          "internalType": "string",
          "name": "",
          "type": "string"
        }
      ],
      "stateMutability": "nonpayable",
      "type": "function"
    },
    {
      "inputs": [],
      "name": "name",
      "outputs": [
        {
          "internalType": "string",
          "name": "",
          "type": "string"
        }
      ],
      "stateMutability": "view",
      "type": "function"
    },
    {
      "inputs": [],
      "name": "owner",
      "outputs": [
        {
          "internalType": "address",
          "name": "",
          "type": "address"
        }
      ],
      "stateMutability": "view",
      "type": "function"
    },
    {
      "inputs": [
        {
          "internalType": "uint256",
          "name": "tokenId",
          "type": "uint256"
        }
      ],
      "name": "ownerOf",
      "outputs": [
        {
          "internalType": "address",
          "name": "",
          "type": "address"
        }
      ],
      "stateMutability": "view",
      "type": "function"
    },
    {
      "inputs": [],
      "name": "renounceOwnership",
      "outputs": [],
      "stateMutability": "nonpayable",
      "type": "function"
    },
    {
      "inputs": [
        {
          "internalType": "address",
          "name": "from",
          "type": "address"
        },
        {
          "internalType": "address",
          "name": "to",
          "type": "address"
        },
        {
          "internalType": "uint256",
          "name": "tokenId",
          "type": "uint256"
        }
      ],
      "name": "safeTransferFrom",
      "outputs": [],
      "stateMutability": "nonpayable",
      "type": "function"
    },
    {
      "inputs": [
        {
          "internalType": "address",
          "name": "from",
          "type": "address"
        },
        {
          "internalType": "address",
          "name": "to",
          "type": "address"
        },
        {
          "internalType": "uint256",
          "name": "tokenId",
          "type": "uint256"
        },
        {
          "internalType": "bytes",
          "name": "_data",
          "type": "bytes"
        }
      ],
      "name": "safeTransferFrom",
      "outputs": [],
      "stateMutability": "nonpayable",
      "type": "function"
    },
    {
      "inputs": [
        {
          "internalType": "address",
          "name": "operator",
          "type": "address"
        },
        {
          "internalType": "bool",
          "name": "approved",
          "type": "bool"
        }
      ],
      "name": "setApprovalForAll",
      "outputs": [],
      "stateMutability": "nonpayable",
      "type": "function"
    },
    {
      "inputs": [
        {
          "internalType": "bytes4",
          "name": "interfaceId",
          "type": "bytes4"
        }
      ],
      "name": "supportsInterface",
      "outputs": [
        {
          "internalType": "bool",
          "name": "",
          "type": "bool"
        }
      ],
      "stateMutability": "view",
      "type": "function"
    },
    {
      "inputs": [],
      "name": "symbol",
      "outputs": [
        {
          "internalType": "string",
          "name": "",
          "type": "string"
        }
      ],
      "stateMutability": "view",
      "type": "function"
    },
    {
      "inputs": [
        {
          "internalType": "uint256",
          "name": "",
          "type": "uint256"
        }
      ],
      "name": "tokenIdtoMetadata",
      "outputs": [
        {
          "internalType": "string",
          "name": "",
          "type": "string"
        }
      ],
      "stateMutability": "view",
      "type": "function"
    },
    {
      "inputs": [
        {
          "internalType": "uint256",
          "name": "tokenId",
          "type": "uint256"
        }
      ],
      "name": "tokenURI",
      "outputs": [
        {
          "internalType": "string",
          "name": "",
          "type": "string"
        }
      ],
      "stateMutability": "view",
      "type": "function"
    },
    {
      "inputs": [
        {
          "internalType": "address",
          "name": "from",
          "type": "address"
        },
        {
          "internalType": "address",
          "name": "to",
          "type": "address"
        },
        {
          "internalType": "uint256",
          "name": "tokenId",
          "type": "uint256"
        }
      ],
      "name": "transferFrom",
      "outputs": [],
      "stateMutability": "nonpayable",
      "type": "function"
    },
    {
      "inputs": [
        {
          "internalType": "address",
          "name": "newOwner",
          "type": "address"
        }
      ],
      "name": "transferOwnership",
      "outputs": [],
      "stateMutability": "nonpayable",
      "type": "function"
    }
  ],
  "bytecode": "0x60806040523480156200001157600080fd5b506040518060400160405280600981526020017f4f472041746164696100000000000000000000000000000000000000000000008152506040518060400160405280600381526020017f4154440000000000000000000000000000000000000000000000000000000000815250816000908051906020019062000096929190620001a6565b508060019080519060200190620000af929190620001a6565b505050620000d2620000c6620000d860201b60201c565b620000e060201b60201c565b620002bb565b600033905090565b6000600660009054906101000a900473ffffffffffffffffffffffffffffffffffffffff16905081600660006101000a81548173ffffffffffffffffffffffffffffffffffffffff021916908373ffffffffffffffffffffffffffffffffffffffff1602179055508173ffffffffffffffffffffffffffffffffffffffff168173ffffffffffffffffffffffffffffffffffffffff167f8be0079c531659141344cd1fd0a4f28419497f9722a3daafe3b4186f6b6457e060405160405180910390a35050565b828054620001b49062000256565b90600052602060002090601f016020900481019282620001d8576000855562000224565b82601f10620001f357805160ff191683800117855562000224565b8280016001018555821562000224579182015b828111156200022357825182559160200191906001019062000206565b5b50905062000233919062000237565b5090565b5b808211156200025257600081600090555060010162000238565b5090565b600060028204905060018216806200026f57607f821691505b602082108114156200028657620002856200028c565b5b50919050565b7f4e487b7100000000000000000000000000000000000000000000000000000000600052602260045260246000fd5b612e6a80620002cb6000396000f3fe608060405234801561001057600080fd5b50600436106101215760003560e01c8063715018a6116100ad578063b88d4fde11610071578063b88d4fde1461031a578063c87b56dd14610336578063e985e9c514610366578063eacabe1414610396578063f2fde38b146103c657610121565b8063715018a6146102885780638da5cb5b1461029257806395d89b41146102b0578063a22cb465146102ce578063a574cea4146102ea57610121565b806323b872dd116100f457806323b872dd146101c05780633bd1052e146101dc57806342842e0e1461020c5780636352211e1461022857806370a082311461025857610121565b806301ffc9a71461012657806306fdde0314610156578063081812fc14610174578063095ea7b3146101a4575b600080fd5b610140600480360381019061013b9190611f4e565b6103e2565b60405161014d9190612369565b60405180910390f35b61015e6104c4565b60405161016b9190612384565b60405180910390f35b61018e60048036038101906101899190611fa0565b610556565b60405161019b9190612302565b60405180910390f35b6101be60048036038101906101b99190611f12565b6105db565b005b6101da60048036038101906101d59190611db8565b6106f3565b005b6101f660048036038101906101f19190611fa0565b610753565b6040516102039190612384565b60405180910390f35b61022660048036038101906102219190611db8565b6107f3565b005b610242600480360381019061023d9190611fa0565b610813565b60405161024f9190612302565b60405180910390f35b610272600480360381019061026d9190611d53565b6108c5565b60405161027f9190612586565b60405180910390f35b61029061097d565b005b61029a610a05565b6040516102a79190612302565b60405180910390f35b6102b8610a2f565b6040516102c59190612384565b60405180910390f35b6102e860048036038101906102e39190611e82565b610ac1565b005b61030460048036038101906102ff9190611fa0565b610ad7565b6040516103119190612384565b60405180910390f35b610334600480360381019061032f9190611e07565b610b7c565b005b610350600480360381019061034b9190611fa0565b610bde565b60405161035d9190612384565b60405180910390f35b610380600480360381019061037b9190611d7c565b610c42565b60405161038d9190612369565b60405180910390f35b6103b060048036038101906103ab9190611ebe565b610cd6565b6040516103bd9190612384565b60405180910390f35b6103e060048036038101906103db9190611d53565b610d3a565b005b60007f80ac58cd000000000000000000000000000000000000000000000000000000007bffffffffffffffffffffffffffffffffffffffffffffffffffffffff1916827bffffffffffffffffffffffffffffffffffffffffffffffffffffffff191614806104ad57507f5b5e139f000000000000000000000000000000000000000000000000000000007bffffffffffffffffffffffffffffffffffffffffffffffffffffffff1916827bffffffffffffffffffffffffffffffffffffffffffffffffffffffff1916145b806104bd57506104bc82610e32565b5b9050919050565b6060600080546104d390612836565b80601f01602080910402602001604051908101604052809291908181526020018280546104ff90612836565b801561054c5780601f106105215761010080835404028352916020019161054c565b820191906000526020600020905b81548152906001019060200180831161052f57829003601f168201915b5050505050905090565b600061056182610e9c565b6105a0576040517f08c379a000000000000000000000000000000000000000000000000000000000815260040161059790612506565b60405180910390fd5b6004600083815260200190815260200160002060009054906101000a900473ffffffffffffffffffffffffffffffffffffffff169050919050565b60006105e682610813565b90508073ffffffffffffffffffffffffffffffffffffffff168373ffffffffffffffffffffffffffffffffffffffff161415610657576040517f08c379a000000000000000000000000000000000000000000000000000000000815260040161064e90612546565b60405180910390fd5b8073ffffffffffffffffffffffffffffffffffffffff16610676610f08565b73ffffffffffffffffffffffffffffffffffffffff1614806106a557506106a48161069f610f08565b610c42565b5b6106e4576040517f08c379a00000000000000000000000000000000000000000000000000000000081526004016106db90612486565b60405180910390fd5b6106ee8383610f10565b505050565b6107046106fe610f08565b82610fc9565b610743576040517f08c379a000000000000000000000000000000000000000000000000000000000815260040161073a90612566565b60405180910390fd5b61074e8383836110a7565b505050565b6008602052806000526040600020600091509050805461077290612836565b80601f016020809104026020016040519081016040528092919081815260200182805461079e90612836565b80156107eb5780601f106107c0576101008083540402835291602001916107eb565b820191906000526020600020905b8154815290600101906020018083116107ce57829003601f168201915b505050505081565b61080e83838360405180602001604052806000815250610b7c565b505050565b6000806002600084815260200190815260200160002060009054906101000a900473ffffffffffffffffffffffffffffffffffffffff169050600073ffffffffffffffffffffffffffffffffffffffff168173ffffffffffffffffffffffffffffffffffffffff1614156108bc576040517f08c379a00000000000000000000000000000000000000000000000000000000081526004016108b3906124c6565b60405180910390fd5b80915050919050565b60008073ffffffffffffffffffffffffffffffffffffffff168273ffffffffffffffffffffffffffffffffffffffff161415610936576040517f08c379a000000000000000000000000000000000000000000000000000000000815260040161092d906124a6565b60405180910390fd5b600360008373ffffffffffffffffffffffffffffffffffffffff1673ffffffffffffffffffffffffffffffffffffffff168152602001908152602001600020549050919050565b610985610f08565b73ffffffffffffffffffffffffffffffffffffffff166109a3610a05565b73ffffffffffffffffffffffffffffffffffffffff16146109f9576040517f08c379a00000000000000000000000000000000000000000000000000000000081526004016109f090612526565b60405180910390fd5b610a03600061130e565b565b6000600660009054906101000a900473ffffffffffffffffffffffffffffffffffffffff16905090565b606060018054610a3e90612836565b80601f0160208091040260200160405190810160405280929190818152602001828054610a6a90612836565b8015610ab75780601f10610a8c57610100808354040283529160200191610ab7565b820191906000526020600020905b815481529060010190602001808311610a9a57829003601f168201915b5050505050905090565b610ad3610acc610f08565b83836113d4565b5050565b6060600860008381526020019081526020016000208054610af790612836565b80601f0160208091040260200160405190810160405280929190818152602001828054610b2390612836565b8015610b705780601f10610b4557610100808354040283529160200191610b70565b820191906000526020600020905b815481529060010190602001808311610b5357829003601f168201915b50505050509050919050565b610b8d610b87610f08565b83610fc9565b610bcc576040517f08c379a0000000000000000000000000000000000000000000000000000000008152600401610bc390612566565b60405180910390fd5b610bd884848484611541565b50505050565b60606000610beb83610ad7565b90506000610c1782604051602001610c0391906122c9565b60405160208183030381529060405261159d565b905080604051602001610c2a91906122e0565b60405160208183030381529060405292505050919050565b6000600560008473ffffffffffffffffffffffffffffffffffffffff1673ffffffffffffffffffffffffffffffffffffffff16815260200190815260200160002060008373ffffffffffffffffffffffffffffffffffffffff1673ffffffffffffffffffffffffffffffffffffffff16815260200190815260200160002060009054906101000a900460ff16905092915050565b6060610ce2600761173c565b6000610cee6007611752565b905082600860008381526020019081526020016000209080519060200190610d17929190611b77565b50610d228482611760565b6000610d2d82610bde565b9050809250505092915050565b610d42610f08565b73ffffffffffffffffffffffffffffffffffffffff16610d60610a05565b73ffffffffffffffffffffffffffffffffffffffff1614610db6576040517f08c379a0000000000000000000000000000000000000000000000000000000008152600401610dad90612526565b60405180910390fd5b600073ffffffffffffffffffffffffffffffffffffffff168173ffffffffffffffffffffffffffffffffffffffff161415610e26576040517f08c379a0000000000000000000000000000000000000000000000000000000008152600401610e1d906123c6565b60405180910390fd5b610e2f8161130e565b50565b60007f01ffc9a7000000000000000000000000000000000000000000000000000000007bffffffffffffffffffffffffffffffffffffffffffffffffffffffff1916827bffffffffffffffffffffffffffffffffffffffffffffffffffffffff1916149050919050565b60008073ffffffffffffffffffffffffffffffffffffffff166002600084815260200190815260200160002060009054906101000a900473ffffffffffffffffffffffffffffffffffffffff1673ffffffffffffffffffffffffffffffffffffffff1614159050919050565b600033905090565b816004600083815260200190815260200160002060006101000a81548173ffffffffffffffffffffffffffffffffffffffff021916908373ffffffffffffffffffffffffffffffffffffffff160217905550808273ffffffffffffffffffffffffffffffffffffffff16610f8383610813565b73ffffffffffffffffffffffffffffffffffffffff167f8c5be1e5ebec7d5bd14f71427d1e84f3dd0314c0f7b2291e5b200ac8c7c3b92560405160405180910390a45050565b6000610fd482610e9c565b611013576040517f08c379a000000000000000000000000000000000000000000000000000000000815260040161100a90612466565b60405180910390fd5b600061101e83610813565b90508073ffffffffffffffffffffffffffffffffffffffff168473ffffffffffffffffffffffffffffffffffffffff16148061108d57508373ffffffffffffffffffffffffffffffffffffffff1661107584610556565b73ffffffffffffffffffffffffffffffffffffffff16145b8061109e575061109d8185610c42565b5b91505092915050565b8273ffffffffffffffffffffffffffffffffffffffff166110c782610813565b73ffffffffffffffffffffffffffffffffffffffff161461111d576040517f08c379a0000000000000000000000000000000000000000000000000000000008152600401611114906123e6565b60405180910390fd5b600073ffffffffffffffffffffffffffffffffffffffff168273ffffffffffffffffffffffffffffffffffffffff16141561118d576040517f08c379a000000000000000000000000000000000000000000000000000000000815260040161118490612426565b60405180910390fd5b61119883838361177e565b6111a3600082610f10565b6001600360008573ffffffffffffffffffffffffffffffffffffffff1673ffffffffffffffffffffffffffffffffffffffff16815260200190815260200160002060008282546111f3919061274c565b925050819055506001600360008473ffffffffffffffffffffffffffffffffffffffff1673ffffffffffffffffffffffffffffffffffffffff168152602001908152602001600020600082825461124a919061266b565b92505081905550816002600083815260200190815260200160002060006101000a81548173ffffffffffffffffffffffffffffffffffffffff021916908373ffffffffffffffffffffffffffffffffffffffff160217905550808273ffffffffffffffffffffffffffffffffffffffff168473ffffffffffffffffffffffffffffffffffffffff167fddf252ad1be2c89b69c2b068fc378daa952ba7f163c4a11628f55a4df523b3ef60405160405180910390a4611309838383611783565b505050565b6000600660009054906101000a900473ffffffffffffffffffffffffffffffffffffffff16905081600660006101000a81548173ffffffffffffffffffffffffffffffffffffffff021916908373ffffffffffffffffffffffffffffffffffffffff1602179055508173ffffffffffffffffffffffffffffffffffffffff168173ffffffffffffffffffffffffffffffffffffffff167f8be0079c531659141344cd1fd0a4f28419497f9722a3daafe3b4186f6b6457e060405160405180910390a35050565b8173ffffffffffffffffffffffffffffffffffffffff168373ffffffffffffffffffffffffffffffffffffffff161415611443576040517f08c379a000000000000000000000000000000000000000000000000000000000815260040161143a90612446565b60405180910390fd5b80600560008573ffffffffffffffffffffffffffffffffffffffff1673ffffffffffffffffffffffffffffffffffffffff16815260200190815260200160002060008473ffffffffffffffffffffffffffffffffffffffff1673ffffffffffffffffffffffffffffffffffffffff16815260200190815260200160002060006101000a81548160ff0219169083151502179055508173ffffffffffffffffffffffffffffffffffffffff168373ffffffffffffffffffffffffffffffffffffffff167f17307eab39ab6107e8899845ad3d59bd9653f200f220920489ca2b5937696c31836040516115349190612369565b60405180910390a3505050565b61154c8484846110a7565b61155884848484611788565b611597576040517f08c379a000000000000000000000000000000000000000000000000000000000815260040161158e906123a6565b60405180910390fd5b50505050565b60606000825114156115c057604051806020016040528060008152509050611737565b6000604051806060016040528060408152602001612df560409139905060006003600285516115ef919061266b565b6115f991906126c1565b600461160591906126f2565b90506000602082611616919061266b565b67ffffffffffffffff811115611655577f4e487b7100000000000000000000000000000000000000000000000000000000600052604160045260246000fd5b6040519080825280601f01601f1916602001820160405280156116875781602001600182028036833780820191505090505b509050818152600183018586518101602084015b818310156116f6576003830192508251603f8160121c168501518253600182019150603f81600c1c168501518253600182019150603f8160061c168501518253600182019150603f811685015182536001820191505061169b565b60038951066001811461171057600281146117205761172b565b613d3d60f01b600283035261172b565b603d60f81b60018303525b50505050508093505050505b919050565b6001816000016000828254019250508190555050565b600081600001549050919050565b61177a82826040518060200160405280600081525061191f565b5050565b505050565b505050565b60006117a98473ffffffffffffffffffffffffffffffffffffffff1661197a565b15611912578373ffffffffffffffffffffffffffffffffffffffff1663150b7a026117d2610f08565b8786866040518563ffffffff1660e01b81526004016117f4949392919061231d565b602060405180830381600087803b15801561180e57600080fd5b505af192505050801561183f57506040513d601f19601f8201168201806040525081019061183c9190611f77565b60015b6118c2573d806000811461186f576040519150601f19603f3d011682016040523d82523d6000602084013e611874565b606091505b506000815114156118ba576040517f08c379a00000000000000000000000000000000000000000000000000000000081526004016118b1906123a6565b60405180910390fd5b805181602001fd5b63150b7a0260e01b7bffffffffffffffffffffffffffffffffffffffffffffffffffffffff1916817bffffffffffffffffffffffffffffffffffffffffffffffffffffffff191614915050611917565b600190505b949350505050565b611929838361199d565b6119366000848484611788565b611975576040517f08c379a000000000000000000000000000000000000000000000000000000000815260040161196c906123a6565b60405180910390fd5b505050565b6000808273ffffffffffffffffffffffffffffffffffffffff163b119050919050565b600073ffffffffffffffffffffffffffffffffffffffff168273ffffffffffffffffffffffffffffffffffffffff161415611a0d576040517f08c379a0000000000000000000000000000000000000000000000000000000008152600401611a04906124e6565b60405180910390fd5b611a1681610e9c565b15611a56576040517f08c379a0000000000000000000000000000000000000000000000000000000008152600401611a4d90612406565b60405180910390fd5b611a626000838361177e565b6001600360008473ffffffffffffffffffffffffffffffffffffffff1673ffffffffffffffffffffffffffffffffffffffff1681526020019081526020016000206000828254611ab2919061266b565b92505081905550816002600083815260200190815260200160002060006101000a81548173ffffffffffffffffffffffffffffffffffffffff021916908373ffffffffffffffffffffffffffffffffffffffff160217905550808273ffffffffffffffffffffffffffffffffffffffff16600073ffffffffffffffffffffffffffffffffffffffff167fddf252ad1be2c89b69c2b068fc378daa952ba7f163c4a11628f55a4df523b3ef60405160405180910390a4611b7360008383611783565b5050565b828054611b8390612836565b90600052602060002090601f016020900481019282611ba55760008555611bec565b82601f10611bbe57805160ff1916838001178555611bec565b82800160010185558215611bec579182015b82811115611beb578251825591602001919060010190611bd0565b5b509050611bf99190611bfd565b5090565b5b80821115611c16576000816000905550600101611bfe565b5090565b6000611c2d611c28846125c6565b6125a1565b905082815260208101848484011115611c4557600080fd5b611c508482856127f4565b509392505050565b6000611c6b611c66846125f7565b6125a1565b905082815260208101848484011115611c8357600080fd5b611c8e8482856127f4565b509392505050565b600081359050611ca581612d98565b92915050565b600081359050611cba81612daf565b92915050565b600081359050611ccf81612dc6565b92915050565b600081519050611ce481612dc6565b92915050565b600082601f830112611cfb57600080fd5b8135611d0b848260208601611c1a565b91505092915050565b600082601f830112611d2557600080fd5b8135611d35848260208601611c58565b91505092915050565b600081359050611d4d81612ddd565b92915050565b600060208284031215611d6557600080fd5b6000611d7384828501611c96565b91505092915050565b60008060408385031215611d8f57600080fd5b6000611d9d85828601611c96565b9250506020611dae85828601611c96565b9150509250929050565b600080600060608486031215611dcd57600080fd5b6000611ddb86828701611c96565b9350506020611dec86828701611c96565b9250506040611dfd86828701611d3e565b9150509250925092565b60008060008060808587031215611e1d57600080fd5b6000611e2b87828801611c96565b9450506020611e3c87828801611c96565b9350506040611e4d87828801611d3e565b925050606085013567ffffffffffffffff811115611e6a57600080fd5b611e7687828801611cea565b91505092959194509250565b60008060408385031215611e9557600080fd5b6000611ea385828601611c96565b9250506020611eb485828601611cab565b9150509250929050565b60008060408385031215611ed157600080fd5b6000611edf85828601611c96565b925050602083013567ffffffffffffffff811115611efc57600080fd5b611f0885828601611d14565b9150509250929050565b60008060408385031215611f2557600080fd5b6000611f3385828601611c96565b9250506020611f4485828601611d3e565b9150509250929050565b600060208284031215611f6057600080fd5b6000611f6e84828501611cc0565b91505092915050565b600060208284031215611f8957600080fd5b6000611f9784828501611cd5565b91505092915050565b600060208284031215611fb257600080fd5b6000611fc084828501611d3e565b91505092915050565b611fd281612780565b82525050565b611fe181612792565b82525050565b6000611ff282612628565b611ffc818561263e565b935061200c818560208601612803565b61201581612955565b840191505092915050565b600061202b82612633565b612035818561264f565b9350612045818560208601612803565b61204e81612955565b840191505092915050565b600061206482612633565b61206e8185612660565b935061207e818560208601612803565b80840191505092915050565b600061209760328361264f565b91506120a282612966565b604082019050919050565b60006120ba60268361264f565b91506120c5826129b5565b604082019050919050565b60006120dd60258361264f565b91506120e882612a04565b604082019050919050565b6000612100601c8361264f565b915061210b82612a53565b602082019050919050565b600061212360248361264f565b915061212e82612a7c565b604082019050919050565b600061214660198361264f565b915061215182612acb565b602082019050919050565b6000612169602c8361264f565b915061217482612af4565b604082019050919050565b600061218c60388361264f565b915061219782612b43565b604082019050919050565b60006121af602a8361264f565b91506121ba82612b92565b604082019050919050565b60006121d260298361264f565b91506121dd82612be1565b604082019050919050565b60006121f560208361264f565b915061220082612c30565b602082019050919050565b6000612218602c8361264f565b915061222382612c59565b604082019050919050565b600061223b60208361264f565b915061224682612ca8565b602082019050919050565b600061225e60218361264f565b915061226982612cd1565b604082019050919050565b6000612281601d83612660565b915061228c82612d20565b601d82019050919050565b60006122a460318361264f565b91506122af82612d49565b604082019050919050565b6122c3816127ea565b82525050565b60006122d58284612059565b915081905092915050565b60006122eb82612274565b91506122f78284612059565b915081905092915050565b60006020820190506123176000830184611fc9565b92915050565b60006080820190506123326000830187611fc9565b61233f6020830186611fc9565b61234c60408301856122ba565b818103606083015261235e8184611fe7565b905095945050505050565b600060208201905061237e6000830184611fd8565b92915050565b6000602082019050818103600083015261239e8184612020565b905092915050565b600060208201905081810360008301526123bf8161208a565b9050919050565b600060208201905081810360008301526123df816120ad565b9050919050565b600060208201905081810360008301526123ff816120d0565b9050919050565b6000602082019050818103600083015261241f816120f3565b9050919050565b6000602082019050818103600083015261243f81612116565b9050919050565b6000602082019050818103600083015261245f81612139565b9050919050565b6000602082019050818103600083015261247f8161215c565b9050919050565b6000602082019050818103600083015261249f8161217f565b9050919050565b600060208201905081810360008301526124bf816121a2565b9050919050565b600060208201905081810360008301526124df816121c5565b9050919050565b600060208201905081810360008301526124ff816121e8565b9050919050565b6000602082019050818103600083015261251f8161220b565b9050919050565b6000602082019050818103600083015261253f8161222e565b9050919050565b6000602082019050818103600083015261255f81612251565b9050919050565b6000602082019050818103600083015261257f81612297565b9050919050565b600060208201905061259b60008301846122ba565b92915050565b60006125ab6125bc565b90506125b78282612868565b919050565b6000604051905090565b600067ffffffffffffffff8211156125e1576125e0612926565b5b6125ea82612955565b9050602081019050919050565b600067ffffffffffffffff82111561261257612611612926565b5b61261b82612955565b9050602081019050919050565b600081519050919050565b600081519050919050565b600082825260208201905092915050565b600082825260208201905092915050565b600081905092915050565b6000612676826127ea565b9150612681836127ea565b9250827fffffffffffffffffffffffffffffffffffffffffffffffffffffffffffffffff038211156126b6576126b5612899565b5b828201905092915050565b60006126cc826127ea565b91506126d7836127ea565b9250826126e7576126e66128c8565b5b828204905092915050565b60006126fd826127ea565b9150612708836127ea565b9250817fffffffffffffffffffffffffffffffffffffffffffffffffffffffffffffffff048311821515161561274157612740612899565b5b828202905092915050565b6000612757826127ea565b9150612762836127ea565b92508282101561277557612774612899565b5b828203905092915050565b600061278b826127ca565b9050919050565b60008115159050919050565b60007fffffffff0000000000000000000000000000000000000000000000000000000082169050919050565b600073ffffffffffffffffffffffffffffffffffffffff82169050919050565b6000819050919050565b82818337600083830152505050565b60005b83811015612821578082015181840152602081019050612806565b83811115612830576000848401525b50505050565b6000600282049050600182168061284e57607f821691505b60208210811415612862576128616128f7565b5b50919050565b61287182612955565b810181811067ffffffffffffffff821117156128905761288f612926565b5b80604052505050565b7f4e487b7100000000000000000000000000000000000000000000000000000000600052601160045260246000fd5b7f4e487b7100000000000000000000000000000000000000000000000000000000600052601260045260246000fd5b7f4e487b7100000000000000000000000000000000000000000000000000000000600052602260045260246000fd5b7f4e487b7100000000000000000000000000000000000000000000000000000000600052604160045260246000fd5b6000601f19601f8301169050919050565b7f4552433732313a207472616e7366657220746f206e6f6e20455243373231526560008201527f63656976657220696d706c656d656e7465720000000000000000000000000000602082015250565b7f4f776e61626c653a206e6577206f776e657220697320746865207a65726f206160008201527f6464726573730000000000000000000000000000000000000000000000000000602082015250565b7f4552433732313a207472616e736665722066726f6d20696e636f72726563742060008201527f6f776e6572000000000000000000000000000000000000000000000000000000602082015250565b7f4552433732313a20746f6b656e20616c7265616479206d696e74656400000000600082015250565b7f4552433732313a207472616e7366657220746f20746865207a65726f2061646460008201527f7265737300000000000000000000000000000000000000000000000000000000602082015250565b7f4552433732313a20617070726f766520746f2063616c6c657200000000000000600082015250565b7f4552433732313a206f70657261746f7220717565727920666f72206e6f6e657860008201527f697374656e7420746f6b656e0000000000000000000000000000000000000000602082015250565b7f4552433732313a20617070726f76652063616c6c6572206973206e6f74206f7760008201527f6e6572206e6f7220617070726f76656420666f7220616c6c0000000000000000602082015250565b7f4552433732313a2062616c616e636520717565727920666f7220746865207a6560008201527f726f206164647265737300000000000000000000000000000000000000000000602082015250565b7f4552433732313a206f776e657220717565727920666f72206e6f6e657869737460008201527f656e7420746f6b656e0000000000000000000000000000000000000000000000602082015250565b7f4552433732313a206d696e7420746f20746865207a65726f2061646472657373600082015250565b7f4552433732313a20617070726f76656420717565727920666f72206e6f6e657860008201527f697374656e7420746f6b656e0000000000000000000000000000000000000000602082015250565b7f4f776e61626c653a2063616c6c6572206973206e6f7420746865206f776e6572600082015250565b7f4552433732313a20617070726f76616c20746f2063757272656e74206f776e6560008201527f7200000000000000000000000000000000000000000000000000000000000000602082015250565b7f646174613a6170706c69636174696f6e2f6a736f6e3b6261736536342c000000600082015250565b7f4552433732313a207472616e736665722063616c6c6572206973206e6f74206f60008201527f776e6572206e6f7220617070726f766564000000000000000000000000000000602082015250565b612da181612780565b8114612dac57600080fd5b50565b612db881612792565b8114612dc357600080fd5b50565b612dcf8161279e565b8114612dda57600080fd5b50565b612de6816127ea565b8114612df157600080fd5b5056fe4142434445464748494a4b4c4d4e4f505152535455565758595a6162636465666768696a6b6c6d6e6f707172737475767778797a303132333435363738392b2fa2646970667358221220b29dcd3f59b182a82efc4dc47bafcde4839029e570075efcfc518269b0eb6fd264736f6c63430008010033",
  "linkReferences": {},
  "deployedLinkReferences": {}
}