{
  "_format": "hh-sol-artifact-1",
  "contractName": "Atadia",
  "sourceName": "contracts/Token.sol",
  "abi": [
    {
      "inputs": [],
      "stateMutability": "nonpayable",
      "type": "constructor"
    },
    {
      "anonymous": false,
      "inputs": [
        {
          "indexed": true,
          "internalType": "address",
          "name": "owner",
          "type": "address"
        },
        {
          "indexed": true,
          "internalType": "address",
          "name": "spender",
          "type": "address"
        },
        {
          "indexed": false,
          "internalType": "uint256",
          "name": "value",
          "type": "uint256"
        }
      ],
      "name": "Approval",
      "type": "event"
    },
    {
      "anonymous": false,
      "inputs": [
        {
          "indexed": true,
          "internalType": "address",
          "name": "previousOwner",
          "type": "address"
        },
        {
          "indexed": true,
          "internalType": "address",
          "name": "newOwner",
          "type": "address"
        }
      ],
      "name": "OwnershipTransferred",
      "type": "event"
    },
    {
      "anonymous": false,
      "inputs": [
        {
          "indexed": true,
          "internalType": "address",
          "name": "from",
          "type": "address"
        },
        {
          "indexed": true,
          "internalType": "address",
          "name": "to",
          "type": "address"
        },
        {
          "indexed": false,
          "internalType": "uint256",
          "name": "value",
          "type": "uint256"
        }
      ],
      "name": "Transfer",
      "type": "event"
    },
    {
      "inputs": [
        {
          "internalType": "address",
          "name": "owner",
          "type": "address"
        },
        {
          "internalType": "address",
          "name": "spender",
          "type": "address"
        }
      ],
      "name": "allowance",
      "outputs": [
        {
          "internalType": "uint256",
          "name": "",
          "type": "uint256"
        }
      ],
      "stateMutability": "view",
      "type": "function"
    },
    {
      "inputs": [
        {
          "internalType": "address",
          "name": "spender",
          "type": "address"
        },
        {
          "internalType": "uint256",
          "name": "amount",
          "type": "uint256"
        }
      ],
      "name": "approve",
      "outputs": [
        {
          "internalType": "bool",
          "name": "",
          "type": "bool"
        }
      ],
      "stateMutability": "nonpayable",
      "type": "function"
    },
    {
      "inputs": [
        {
          "internalType": "address",
          "name": "account",
          "type": "address"
        }
      ],
      "name": "balanceOf",
      "outputs": [
        {
          "internalType": "uint256",
          "name": "",
          "type": "uint256"
        }
      ],
      "stateMutability": "view",
      "type": "function"
    },
    {
      "inputs": [],
      "name": "decimals",
      "outputs": [
        {
          "internalType": "uint8",
          "name": "",
          "type": "uint8"
        }
      ],
      "stateMutability": "view",
      "type": "function"
    },
    {
      "inputs": [
        {
          "internalType": "address",
          "name": "spender",
          "type": "address"
        },
        {
          "internalType": "uint256",
          "name": "subtractedValue",
          "type": "uint256"
        }
      ],
      "name": "decreaseAllowance",
      "outputs": [
        {
          "internalType": "bool",
          "name": "",
          "type": "bool"
        }
      ],
      "stateMutability": "nonpayable",
      "type": "function"
    },
    {
      "inputs": [
        {
          "internalType": "address",
          "name": "spender",
          "type": "address"
        },
        {
          "internalType": "uint256",
          "name": "addedValue",
          "type": "uint256"
        }
      ],
      "name": "increaseAllowance",
      "outputs": [
        {
          "internalType": "bool",
          "name": "",
          "type": "bool"
        }
      ],
      "stateMutability": "nonpayable",
      "type": "function"
    },
    {
      "inputs": [
        {
          "internalType": "address",
          "name": "receiver",
          "type": "address"
        },
        {
          "internalType": "uint256",
          "name": "amount",
          "type": "uint256"
        }
      ],
      "name": "issueToken",
      "outputs": [
        {
          "internalType": "bool",
          "name": "sent",
          "type": "bool"
        }
      ],
      "stateMutability": "nonpayable",
      "type": "function"
    },
    {
      "inputs": [],
      "name": "name",
      "outputs": [
        {
          "internalType": "string",
          "name": "",
          "type": "string"
        }
      ],
      "stateMutability": "view",
      "type": "function"
    },
    {
      "inputs": [],
      "name": "owner",
      "outputs": [
        {
          "internalType": "address",
          "name": "",
          "type": "address"
        }
      ],
      "stateMutability": "view",
      "type": "function"
    },
    {
      "inputs": [],
      "name": "renounceOwnership",
      "outputs": [],
      "stateMutability": "nonpayable",
      "type": "function"
    },
    {
      "inputs": [
        {
          "internalType": "address",
          "name": "_saleContract",
          "type": "address"
        }
      ],
      "name": "setTokenSaleAddress",
      "outputs": [],
      "stateMutability": "nonpayable",
      "type": "function"
    },
    {
      "inputs": [],
      "name": "symbol",
      "outputs": [
        {
          "internalType": "string",
          "name": "",
          "type": "string"
        }
      ],
      "stateMutability": "view",
      "type": "function"
    },
    {
      "inputs": [],
      "name": "totalSupply",
      "outputs": [
        {
          "internalType": "uint256",
          "name": "",
          "type": "uint256"
        }
      ],
      "stateMutability": "view",
      "type": "function"
    },
    {
      "inputs": [
        {
          "internalType": "address",
          "name": "to",
          "type": "address"
        },
        {
          "internalType": "uint256",
          "name": "amount",
          "type": "uint256"
        }
      ],
      "name": "transfer",
      "outputs": [
        {
          "internalType": "bool",
          "name": "",
          "type": "bool"
        }
      ],
      "stateMutability": "nonpayable",
      "type": "function"
    },
    {
      "inputs": [
        {
          "internalType": "address",
          "name": "from",
          "type": "address"
        },
        {
          "internalType": "address",
          "name": "to",
          "type": "address"
        },
        {
          "internalType": "uint256",
          "name": "amount",
          "type": "uint256"
        }
      ],
      "name": "transferFrom",
      "outputs": [
        {
          "internalType": "bool",
          "name": "",
          "type": "bool"
        }
      ],
      "stateMutability": "nonpayable",
      "type": "function"
    },
    {
      "inputs": [
        {
          "internalType": "address",
          "name": "newOwner",
          "type": "address"
        }
      ],
      "name": "transferOwnership",
      "outputs": [],
      "stateMutability": "nonpayable",
      "type": "function"
    }
  ],
  "bytecode": "0x60806040523480156200001157600080fd5b506040518060400160405280600681526020017f41746164696100000000000000000000000000000000000000000000000000008152506040518060400160405280600381526020017f415441000000000000000000000000000000000000000000000000000000000081525081600390805190602001906200009692919062000345565b508060049080519060200190620000af92919062000345565b505050620000d2620000c6620000f460201b60201c565b620000fc60201b60201c565b620000ee3369d3c21bcecceda1000000620001c260201b60201c565b620005a1565b600033905090565b6000600560009054906101000a900473ffffffffffffffffffffffffffffffffffffffff16905081600560006101000a81548173ffffffffffffffffffffffffffffffffffffffff021916908373ffffffffffffffffffffffffffffffffffffffff1602179055508173ffffffffffffffffffffffffffffffffffffffff168173ffffffffffffffffffffffffffffffffffffffff167f8be0079c531659141344cd1fd0a4f28419497f9722a3daafe3b4186f6b6457e060405160405180910390a35050565b600073ffffffffffffffffffffffffffffffffffffffff168273ffffffffffffffffffffffffffffffffffffffff16141562000235576040517f08c379a00000000000000000000000000000000000000000000000000000000081526004016200022c906200042d565b60405180910390fd5b62000249600083836200033b60201b60201c565b80600260008282546200025d91906200047d565b92505081905550806000808473ffffffffffffffffffffffffffffffffffffffff1673ffffffffffffffffffffffffffffffffffffffff1681526020019081526020016000206000828254620002b491906200047d565b925050819055508173ffffffffffffffffffffffffffffffffffffffff16600073ffffffffffffffffffffffffffffffffffffffff167fddf252ad1be2c89b69c2b068fc378daa952ba7f163c4a11628f55a4df523b3ef836040516200031b91906200044f565b60405180910390a362000337600083836200034060201b60201c565b5050565b505050565b505050565b8280546200035390620004e4565b90600052602060002090601f016020900481019282620003775760008555620003c3565b82601f106200039257805160ff1916838001178555620003c3565b82800160010185558215620003c3579182015b82811115620003c2578251825591602001919060010190620003a5565b5b509050620003d29190620003d6565b5090565b5b80821115620003f1576000816000905550600101620003d7565b5090565b600062000404601f836200046c565b9150620004118262000578565b602082019050919050565b6200042781620004da565b82525050565b600060208201905081810360008301526200044881620003f5565b9050919050565b60006020820190506200046660008301846200041c565b92915050565b600082825260208201905092915050565b60006200048a82620004da565b91506200049783620004da565b9250827fffffffffffffffffffffffffffffffffffffffffffffffffffffffffffffffff03821115620004cf57620004ce6200051a565b5b828201905092915050565b6000819050919050565b60006002820490506001821680620004fd57607f821691505b6020821081141562000514576200051362000549565b5b50919050565b7f4e487b7100000000000000000000000000000000000000000000000000000000600052601160045260246000fd5b7f4e487b7100000000000000000000000000000000000000000000000000000000600052602260045260246000fd5b7f45524332303a206d696e7420746f20746865207a65726f206164647265737300600082015250565b611ab480620005b16000396000f3fe608060405234801561001057600080fd5b50600436106101005760003560e01c8063715018a611610097578063a9059cbb11610066578063a9059cbb146102b1578063dd62ed3e146102e1578063e74a84ea14610311578063f2fde38b1461034157610100565b8063715018a61461023b5780638da5cb5b1461024557806395d89b4114610263578063a457c2d71461028157610100565b8063313ce567116100d3578063313ce567146101a157806339509351146101bf5780635afe5207146101ef57806370a082311461020b57610100565b806306fdde0314610105578063095ea7b31461012357806318160ddd1461015357806323b872dd14610171575b600080fd5b61010d61035d565b60405161011a9190611479565b60405180910390f35b61013d60048036038101906101389190611234565b6103ef565b60405161014a919061145e565b60405180910390f35b61015b610412565b60405161016891906115db565b60405180910390f35b61018b600480360381019061018691906111e5565b61041c565b604051610198919061145e565b60405180910390f35b6101a961044b565b6040516101b691906115f6565b60405180910390f35b6101d960048036038101906101d49190611234565b610454565b6040516101e6919061145e565b60405180910390f35b61020960048036038101906102049190611180565b6104fe565b005b61022560048036038101906102209190611180565b6105be565b60405161023291906115db565b60405180910390f35b610243610606565b005b61024d61068e565b60405161025a9190611443565b60405180910390f35b61026b6106b8565b6040516102789190611479565b60405180910390f35b61029b60048036038101906102969190611234565b61074a565b6040516102a8919061145e565b60405180910390f35b6102cb60048036038101906102c69190611234565b610834565b6040516102d8919061145e565b60405180910390f35b6102fb60048036038101906102f691906111a9565b610857565b60405161030891906115db565b60405180910390f35b61032b60048036038101906103269190611234565b6108de565b604051610338919061145e565b60405180910390f35b61035b60048036038101906103569190611180565b61094e565b005b60606003805461036c9061170b565b80601f01602080910402602001604051908101604052809291908181526020018280546103989061170b565b80156103e55780601f106103ba576101008083540402835291602001916103e5565b820191906000526020600020905b8154815290600101906020018083116103c857829003601f168201915b5050505050905090565b6000806103fa610a46565b9050610407818585610a4e565b600191505092915050565b6000600254905090565b600080610427610a46565b9050610434858285610c19565b61043f858585610ca5565b60019150509392505050565b60006012905090565b60008061045f610a46565b90506104f3818585600160008673ffffffffffffffffffffffffffffffffffffffff1673ffffffffffffffffffffffffffffffffffffffff16815260200190815260200160002060008973ffffffffffffffffffffffffffffffffffffffff1673ffffffffffffffffffffffffffffffffffffffff168152602001908152602001600020546104ee919061162d565b610a4e565b600191505092915050565b610506610a46565b73ffffffffffffffffffffffffffffffffffffffff1661052461068e565b73ffffffffffffffffffffffffffffffffffffffff161461057a576040517f08c379a00000000000000000000000000000000000000000000000000000000081526004016105719061153b565b60405180910390fd5b80600660006101000a81548173ffffffffffffffffffffffffffffffffffffffff021916908373ffffffffffffffffffffffffffffffffffffffff16021790555050565b60008060008373ffffffffffffffffffffffffffffffffffffffff1673ffffffffffffffffffffffffffffffffffffffff168152602001908152602001600020549050919050565b61060e610a46565b73ffffffffffffffffffffffffffffffffffffffff1661062c61068e565b73ffffffffffffffffffffffffffffffffffffffff1614610682576040517f08c379a00000000000000000000000000000000000000000000000000000000081526004016106799061153b565b60405180910390fd5b61068c6000610f26565b565b6000600560009054906101000a900473ffffffffffffffffffffffffffffffffffffffff16905090565b6060600480546106c79061170b565b80601f01602080910402602001604051908101604052809291908181526020018280546106f39061170b565b80156107405780601f1061071557610100808354040283529160200191610740565b820191906000526020600020905b81548152906001019060200180831161072357829003601f168201915b5050505050905090565b600080610755610a46565b90506000600160008373ffffffffffffffffffffffffffffffffffffffff1673ffffffffffffffffffffffffffffffffffffffff16815260200190815260200160002060008673ffffffffffffffffffffffffffffffffffffffff1673ffffffffffffffffffffffffffffffffffffffff1681526020019081526020016000205490508381101561081b576040517f08c379a00000000000000000000000000000000000000000000000000000000081526004016108129061159b565b60405180910390fd5b6108288286868403610a4e565b60019250505092915050565b60008061083f610a46565b905061084c818585610ca5565b600191505092915050565b6000600160008473ffffffffffffffffffffffffffffffffffffffff1673ffffffffffffffffffffffffffffffffffffffff16815260200190815260200160002060008373ffffffffffffffffffffffffffffffffffffffff1673ffffffffffffffffffffffffffffffffffffffff16815260200190815260200160002054905092915050565b6000600660009054906101000a900473ffffffffffffffffffffffffffffffffffffffff1673ffffffffffffffffffffffffffffffffffffffff163373ffffffffffffffffffffffffffffffffffffffff161461093a57600080fd5b6109448383610fec565b6001905092915050565b610956610a46565b73ffffffffffffffffffffffffffffffffffffffff1661097461068e565b73ffffffffffffffffffffffffffffffffffffffff16146109ca576040517f08c379a00000000000000000000000000000000000000000000000000000000081526004016109c19061153b565b60405180910390fd5b600073ffffffffffffffffffffffffffffffffffffffff168173ffffffffffffffffffffffffffffffffffffffff161415610a3a576040517f08c379a0000000000000000000000000000000000000000000000000000000008152600401610a31906114bb565b60405180910390fd5b610a4381610f26565b50565b600033905090565b600073ffffffffffffffffffffffffffffffffffffffff168373ffffffffffffffffffffffffffffffffffffffff161415610abe576040517f08c379a0000000000000000000000000000000000000000000000000000000008152600401610ab59061157b565b60405180910390fd5b600073ffffffffffffffffffffffffffffffffffffffff168273ffffffffffffffffffffffffffffffffffffffff161415610b2e576040517f08c379a0000000000000000000000000000000000000000000000000000000008152600401610b25906114db565b60405180910390fd5b80600160008573ffffffffffffffffffffffffffffffffffffffff1673ffffffffffffffffffffffffffffffffffffffff16815260200190815260200160002060008473ffffffffffffffffffffffffffffffffffffffff1673ffffffffffffffffffffffffffffffffffffffff168152602001908152602001600020819055508173ffffffffffffffffffffffffffffffffffffffff168373ffffffffffffffffffffffffffffffffffffffff167f8c5be1e5ebec7d5bd14f71427d1e84f3dd0314c0f7b2291e5b200ac8c7c3b92583604051610c0c91906115db565b60405180910390a3505050565b6000610c258484610857565b90507fffffffffffffffffffffffffffffffffffffffffffffffffffffffffffffffff8114610c9f5781811015610c91576040517f08c379a0000000000000000000000000000000000000000000000000000000008152600401610c88906114fb565b60405180910390fd5b610c9e8484848403610a4e565b5b50505050565b600073ffffffffffffffffffffffffffffffffffffffff168373ffffffffffffffffffffffffffffffffffffffff161415610d15576040517f08c379a0000000000000000000000000000000000000000000000000000000008152600401610d0c9061155b565b60405180910390fd5b600073ffffffffffffffffffffffffffffffffffffffff168273ffffffffffffffffffffffffffffffffffffffff161415610d85576040517f08c379a0000000000000000000000000000000000000000000000000000000008152600401610d7c9061149b565b60405180910390fd5b610d9083838361114c565b60008060008573ffffffffffffffffffffffffffffffffffffffff1673ffffffffffffffffffffffffffffffffffffffff16815260200190815260200160002054905081811015610e16576040517f08c379a0000000000000000000000000000000000000000000000000000000008152600401610e0d9061151b565b60405180910390fd5b8181036000808673ffffffffffffffffffffffffffffffffffffffff1673ffffffffffffffffffffffffffffffffffffffff16815260200190815260200160002081905550816000808573ffffffffffffffffffffffffffffffffffffffff1673ffffffffffffffffffffffffffffffffffffffff1681526020019081526020016000206000828254610ea9919061162d565b925050819055508273ffffffffffffffffffffffffffffffffffffffff168473ffffffffffffffffffffffffffffffffffffffff167fddf252ad1be2c89b69c2b068fc378daa952ba7f163c4a11628f55a4df523b3ef84604051610f0d91906115db565b60405180910390a3610f20848484611151565b50505050565b6000600560009054906101000a900473ffffffffffffffffffffffffffffffffffffffff16905081600560006101000a81548173ffffffffffffffffffffffffffffffffffffffff021916908373ffffffffffffffffffffffffffffffffffffffff1602179055508173ffffffffffffffffffffffffffffffffffffffff168173ffffffffffffffffffffffffffffffffffffffff167f8be0079c531659141344cd1fd0a4f28419497f9722a3daafe3b4186f6b6457e060405160405180910390a35050565b600073ffffffffffffffffffffffffffffffffffffffff168273ffffffffffffffffffffffffffffffffffffffff16141561105c576040517f08c379a0000000000000000000000000000000000000000000000000000000008152600401611053906115bb565b60405180910390fd5b6110686000838361114c565b806002600082825461107a919061162d565b92505081905550806000808473ffffffffffffffffffffffffffffffffffffffff1673ffffffffffffffffffffffffffffffffffffffff16815260200190815260200160002060008282546110cf919061162d565b925050819055508173ffffffffffffffffffffffffffffffffffffffff16600073ffffffffffffffffffffffffffffffffffffffff167fddf252ad1be2c89b69c2b068fc378daa952ba7f163c4a11628f55a4df523b3ef8360405161113491906115db565b60405180910390a361114860008383611151565b5050565b505050565b505050565b60008135905061116581611a50565b92915050565b60008135905061117a81611a67565b92915050565b60006020828403121561119257600080fd5b60006111a084828501611156565b91505092915050565b600080604083850312156111bc57600080fd5b60006111ca85828601611156565b92505060206111db85828601611156565b9150509250929050565b6000806000606084860312156111fa57600080fd5b600061120886828701611156565b935050602061121986828701611156565b925050604061122a8682870161116b565b9150509250925092565b6000806040838503121561124757600080fd5b600061125585828601611156565b92505060206112668582860161116b565b9150509250929050565b61127981611683565b82525050565b61128881611695565b82525050565b600061129982611611565b6112a3818561161c565b93506112b38185602086016116d8565b6112bc8161179b565b840191505092915050565b60006112d460238361161c565b91506112df826117ac565b604082019050919050565b60006112f760268361161c565b9150611302826117fb565b604082019050919050565b600061131a60228361161c565b91506113258261184a565b604082019050919050565b600061133d601d8361161c565b915061134882611899565b602082019050919050565b600061136060268361161c565b915061136b826118c2565b604082019050919050565b600061138360208361161c565b915061138e82611911565b602082019050919050565b60006113a660258361161c565b91506113b18261193a565b604082019050919050565b60006113c960248361161c565b91506113d482611989565b604082019050919050565b60006113ec60258361161c565b91506113f7826119d8565b604082019050919050565b600061140f601f8361161c565b915061141a82611a27565b602082019050919050565b61142e816116c1565b82525050565b61143d816116cb565b82525050565b60006020820190506114586000830184611270565b92915050565b6000602082019050611473600083018461127f565b92915050565b60006020820190508181036000830152611493818461128e565b905092915050565b600060208201905081810360008301526114b4816112c7565b9050919050565b600060208201905081810360008301526114d4816112ea565b9050919050565b600060208201905081810360008301526114f48161130d565b9050919050565b6000602082019050818103600083015261151481611330565b9050919050565b6000602082019050818103600083015261153481611353565b9050919050565b6000602082019050818103600083015261155481611376565b9050919050565b6000602082019050818103600083015261157481611399565b9050919050565b60006020820190508181036000830152611594816113bc565b9050919050565b600060208201905081810360008301526115b4816113df565b9050919050565b600060208201905081810360008301526115d481611402565b9050919050565b60006020820190506115f06000830184611425565b92915050565b600060208201905061160b6000830184611434565b92915050565b600081519050919050565b600082825260208201905092915050565b6000611638826116c1565b9150611643836116c1565b9250827fffffffffffffffffffffffffffffffffffffffffffffffffffffffffffffffff038211156116785761167761173d565b5b828201905092915050565b600061168e826116a1565b9050919050565b60008115159050919050565b600073ffffffffffffffffffffffffffffffffffffffff82169050919050565b6000819050919050565b600060ff82169050919050565b60005b838110156116f65780820151818401526020810190506116db565b83811115611705576000848401525b50505050565b6000600282049050600182168061172357607f821691505b602082108114156117375761173661176c565b5b50919050565b7f4e487b7100000000000000000000000000000000000000000000000000000000600052601160045260246000fd5b7f4e487b7100000000000000000000000000000000000000000000000000000000600052602260045260246000fd5b6000601f19601f8301169050919050565b7f45524332303a207472616e7366657220746f20746865207a65726f206164647260008201527f6573730000000000000000000000000000000000000000000000000000000000602082015250565b7f4f776e61626c653a206e6577206f776e657220697320746865207a65726f206160008201527f6464726573730000000000000000000000000000000000000000000000000000602082015250565b7f45524332303a20617070726f766520746f20746865207a65726f20616464726560008201527f7373000000000000000000000000000000000000000000000000000000000000602082015250565b7f45524332303a20696e73756666696369656e7420616c6c6f77616e6365000000600082015250565b7f45524332303a207472616e7366657220616d6f756e742065786365656473206260008201527f616c616e63650000000000000000000000000000000000000000000000000000602082015250565b7f4f776e61626c653a2063616c6c6572206973206e6f7420746865206f776e6572600082015250565b7f45524332303a207472616e736665722066726f6d20746865207a65726f20616460008201527f6472657373000000000000000000000000000000000000000000000000000000602082015250565b7f45524332303a20617070726f76652066726f6d20746865207a65726f2061646460008201527f7265737300000000000000000000000000000000000000000000000000000000602082015250565b7f45524332303a2064656372656173656420616c6c6f77616e63652062656c6f7760008201527f207a65726f000000000000000000000000000000000000000000000000000000602082015250565b7f45524332303a206d696e7420746f20746865207a65726f206164647265737300600082015250565b611a5981611683565b8114611a6457600080fd5b50565b611a70816116c1565b8114611a7b57600080fd5b5056fea26469706673582212204cf5a9f2899b74e612db691079648389becc2055958817a17c6483b6c498907b64736f6c63430008010033",
  "linkReferences": {},
  "deployedLinkReferences": {}
}